:020000041000EA
:1000000000B5324B212058609868022188439860DF
:10001000D860186158612E4B002199600221596106
:100020000121F02299502B49196001219960352056
:1000300000F044F80222904214D00621196600F024
:1000400034F8196E01211966002018661A6600F04E
:100050002CF8196E196E196E052000F02FF8012189
:100060000842F9D1002199601B49196000215960AB
:100070001A491B48016001219960EB211966A021F2
:10008000196600F012F800219960164914480160C1
:100090000121996001BC002800D000471248134993
:1000A000086003C880F30888084703B5996A0420EC
:1000B0000142FBD001200142F8D103BD02B5186610
:1000C0001866FFF7F2FF186E186E02BD00000240BE
:1000D000000000180000070000035F00212200005C
:1000E000F4000018222000A00001001008ED00E03C
:1000F00000000000000000000000000074B24E7A12
:1001000000200420F7010010C3010010C5010010F9
:10011000C1010010C1010010C1010010C101001097
:10012000C1010010C1010010C1010010C701001081
:10013000C1010010C1010010C9010010CB01001065
:10014000CD010010CD010010CD010010CD01001037
:10015000CD010010CD010010CD010010CD01001027
:10016000CD010010CD010010CD010010CD01001017
:10017000CD010010CD010010CD010010CD01001007
:10018000CD010010CD010010CD010010CD010010F7
:10019000CD010010CD010010CD010010CD010010E7
:1001A000CD010010CD010010CD010010CD010010D7
:1001B000CD010010CD010010CD010010CD010010C7
:1001C00000BE00BE00BE00BE00BE00BEEFF3058054
:1001D000103800BEF2EB8871C0CE0510E0CE0510DD
:1001E0003402001090A31AE700201F49086006C8D7
:1001F00081F3088810471D48006800282FD10DA4FE
:100200000ECC002902D000F012F8F9E71849194A7B
:10021000002000E001C19142FCD1174988471749ED
:1002200088471749884700BEFDE701C901C29A42C5
:10023000FBD37047E0CE0510C0000020D82A002074
:10024000F8F805100000042000000420F8F805105C
:10025000001004200010042000000000704709482E
:1002600008F03CFD0047000008ED00E0000000D071
:10027000D82A0020644F0020A9740010291B001008
:10028000DD7500105756000006005250ABB36053A6
:10029000B805051006005250861C0302C80505105B
:1002A000060052505422A29DD80505100500525058
:1002B000DE65F468F8F80510F8B5C04610B5064CD0
:1002C0002378002B07D1054B002B02D0044800E017
:1002D00000BF0123237010BDE02D002000000000AE
:1002E000E8E60410044B10B5002B03D00349044882
:1002F00000E000BF10BDC04600000000E42D00205B
:10030000E8E604107047C046C0687047006970474F
:1003100010B503680800984710BDC046012A03D0F5
:10032000022A03D0002070470160FBE70B680360DE
:10033000F8E7C0467047C046030010B5DB680C30D4
:100340001B68984710BDC04610B5C06901F0DCFFBE
:1003500010BDC04610B50400081C002109F04EFC79
:10036000002804D10121E06902F05EFA10BD0021ED
:10037000E06902F059FAF9E7074B0C3010B50400B8
:10038000994206D008002AF0F1FD431E98414042F0
:100390000440200010BDC04634EC041010B5C06904
:1003A00002F068FA10BDC04610B5C06902F05EFAEE
:1003B00010BDC04610B582B0059CC0690194049C74
:1003C00092B2013C89B21419013BCB18A4B29BB282
:1003D000009401F089FF02B010BDC04610B50400C2
:1003E000302109F0B3FC200010BDC04610B530210B
:1003F00009F0ACFC10BDC04610B50400024B036010
:1004000002F0A8FC200010BD08EC041010B5040098
:10041000044B036002F09EFC2000142109F096FCBE
:10042000200010BD08EC041010B5006901F05CFE5E
:1004300010BDC04610B5006901F04AFD10BDC046B0
:1004400070B504000F4809F0E3FDE06901F0C6FF54
:10045000051E13D00221E06901F068FF0021E06968
:1004600001F052FF642006F0D9F8E069012102F0A2
:10047000DBF9054809F0CCFD280070BD034809F000
:10048000C7FDF9E770E70410B8E7041090E704101F
:1004900070B5134B056A04000360002D0DD02B6866
:1004A000104A5B68934217D10F4B28002B6002F073
:1004B00051FC1421280009F049FCE569002D06D003
:1004C000280001F0FBFC0421280009F03FFC20007B
:1004D00001F08AFB200070BD28009847EDE7C04678
:1004E000D0EB04100D04001008EC041070B5154B8F
:1004F000056A04000360002D0DD02B68124A5B686A
:1005000093421BD1114B28002B6002F023FC1421D5
:10051000280009F01BFCE569002D06D0280001F039
:10052000CDFC0421280009F011FC200001F05CFB47
:100530002000242109F00AFC200070BD2800984703
:10054000E9E7C046D0EB04100D04001008EC0410DD
:10055000F0B5DE4657464E464546894611001A001C
:100560003F23E0B583B00C9D0D9C2F0BAE091D40C1
:10057000AA46250B1D40A846A5091D40AC46454688
:10058000AD001F401E401C404B46A94645462D0964
:10059000A8461B684D469B4643461D432B04984680
:1005A00063469B00994663464D461B091D432B023B
:1005B00045461D43A30024091C4353462C43C069F0
:1005C0000194BC003F093C43B70036093E43360264
:1005D000240434431D099E0035432C435B4692B2EC
:1005E00089B2009402F07AFB03B0F0BCBB46B2467D
:1005F000A946A046F0BDC04610B5192005F078F90F
:10060000D02380221B0692045A6202485A6109F0E4
:10061000FFFC10BDE4E70410F0B5C64600B5614B21
:1006200086B01800984609F0F3FC302009F07EFBF4
:10063000012306000400436083605B4B0C360360BB
:10064000300001F0C1FA594B0420E3600023A3629B
:10065000E36209F06BFB564B070004930A230393F4
:1006600009330293013B0193013B0093142251494A
:10067000023B01F0EDFBA56AA762002D07D0280020
:1006800001F01CFC0421280009F060FBA76A14207B
:1006900009F04CFBF022A02105005200490002F0B5
:1006A0004DFB454B2F61E76A2B60E562002F0DD0B3
:1006B0003A68424952688A4200D070E038003B6094
:1006C00002F048FB1421380009F040FBA0235B0036
:1006D0002361A0333A4F6361D93BFF3B7D68A3613F
:1006E0000833E3610B3B236263623E607C60002D54
:1006F00004D06B68013B6B60002B25D03368314A16
:100700009B68934233D1404609F082FCF06901F0C6
:1007100065FE002830D00221F06901F007FE0021BB
:10072000F06901F0F1FD642005F078FFF069012126
:1007300002F07AF8244809F06BFC244809F068FCC0
:1007400006B080BCB846F0BD2B6828009B6898476F
:10075000AB68013BAB60002B03D12B682800DB6842
:1007600098473E68174A33689B689342CBD0300065
:1007700098470028E1D102E0154809F049FCD0254E
:100780008024144809F044FC2D06A40464206C6104
:1007900005F044FF6420AC6105F040FFF6E7380047
:1007A000904793E770E7041020EC0410D0EB04109E
:1007B000005A620200C0034008EC04100D0400104F
:1007C000D44A002041040010B8E704101CE80410CB
:1007D00090E70410FCE70410F0B539488BB009F03D
:1007E00017FCAA20400009F0A1FA040004F03AFC2A
:1007F000344D2E682C60002E08D0300004F02EFA04
:10080000AA213000490009F0A1FA2C680923E1224D
:10081000200000932C49013B520204F059FA041EB7
:1008200015D02A4B28680493294B04A90793294B18
:10083000069304F0ADFA069B002B03D004A9032213
:1008400008009847244809F0E3FB0BB0F0BD2348AB
:1008500009F0DEFB224B00221E6803A9336806ADB7
:100860005F69192304A8039304952AF03BFE039BB8
:1008700019221C490693049009F052FA039B049A2A
:100880000593D454184B9F420FD1F06932220A21AC
:10089000049B0194009402F021FA0498A842D4D059
:1008A0000699013109F052FACFE7FC231B040093AB
:1008B0000A2232233000019404A9B847EDE7C0466C
:1008C00040E80410DC4A0020008003405912001068
:1008D000110300101D030010A0E8041060E80410CC
:1008E000D44A002084E8041051050010F0B53C48BB
:1008F0008BB009F08DFB3B4E33680493736805930E
:10090000002B02D05A6801325A60302009F00EFAEA
:1009100004A9040002F0C0FB059D002D04D06B6803
:10092000013B6B60002B16D02F4D2F682C60002FE1
:1009300007D0380002F03AFC3021380009F006FAFE
:100940002C68200003F0BAFD041E12D0274809F0DD
:100950005FFB0BB0F0BD2B6828009B689847AB6825
:10096000013BAB60002BDFD12B682800DB68984788
:10097000DAE71F4809F04CFB36680022336803A908
:100980005F69182306AD04A8039304952AF0AAFD15
:10099000039B182217490693049009F0C1F9039BA1
:1009A000049A0593D454144B9F420FD1F069462208
:1009B0000A21049B0194009402F090F90498A84243
:1009C000C7D00699013109F0C1F9C2E7FC231B0425
:1009D00000930A2246233000019404A9B847EDE7AA
:1009E000BCE80410D44A0020E04A002018E90410B2
:1009F000D8E80410FCE8041051050010F0B5574683
:100A0000DE464E464546E0B58B4F8C4A3868A3B06B
:100A10000368DB68934200D0D5E20021C06901F091
:100A200073FC3D682B6A0593002B20D02B68844A09
:100A30009B69934200D025E3E86901F017FF0A386B
:100A400004B238687F4A0368DB69934200D016E33A
:100A5000C06901F00FFF7C4B0A3800B2019300908F
:100A6000230005220521059802F032FA3D682B6823
:100A70000DAC5B69002298461123210015AE13A826
:100A80000D9313962AF02EFD0D9B11226F4915939D
:100A9000139009F045F900230D9A139914928B5481
:100AA0006B4A9346904500D084E2E8690193694B14
:100AB0000F2200934621139B02F010F91398B042C5
:100AC00004D0159B591C039309F040F93D6800229E
:100AD0002B6821005B6913A89846112313960D9388
:100AE0002AF000FD0D9B11225B491593139009F02C
:100AF00017F900230D9A139914928B54D84500D0FE
:100B00004FE2E8690193554B232200934621139B42
:100B100002F0E4F81398B04204D0159B591C0393DB
:100B200009F014F93C224E4913A809F0F9F84623BC
:100B30009A4613AE0FAD03963B6899461B685B69F6
:100B40001E00039B1B68984609AB07934346002B86
:100B50006FD0404642F0B4F904900D900F2800D9B0
:100B6000DBE1012800D0D2E143461B7804AA1375CB
:100B700009AB002108901954039B9A685E4500D088
:100B8000E1E13F203F26130B0340900906403F2040
:100B9000104084464846C069019199001B090B43E7
:100BA000B1003609314309021B040B436146890039
:100BB00088466146079A46460492524609093143DF
:100BC0000B4300931421049B92B202F087F807981C
:100BD00009AB984204D0099B591C049309F0B6F85C
:100BE000386803685B6925609846012363602C338D
:100BF0002381D84500D0CBE153469AB20023C06987
:100C00000193144B782100932B0002F067F82068C1
:100C1000A84203D0A368591C09F098F83B6899468C
:100C20001B685B6925601E00039B5B689846002B70
:100C30001AD10C481FF0B8FDD44A00204903001017
:100C4000A90300109D0300107E3E000030E904104F
:100C50005105001000C33C0044E90410F3CF3C00F0
:100C60003CEC041058E90410404642F029F9049085
:100C700007900F2800D96EE1012800D041E14346DA
:100C80002A001B7823720023606013545E4500D055
:100C900075E149465246C8690193E14B8C210093A6
:100CA000236892B202F01AF82068A84203D0A36821
:100CB000591C09F04BF819239C46039BE2440C3362
:100CC00003935346C32B00D036E7059B002B15D06A
:100CD0003868D44A03689B69934200D0D6E1C06962
:100CE00001F0C4FD03007E22143B0192063A0092FB
:100CF0000A2105981BB2643202F0EAF82A003B6828
:100D00009C461B685B690D959846C74B43CB43C215
:100D10001B8813800E2363600023A375D84500D081
:100D20005FE16246D0690193BD4BE6220093142136
:100D30002B0001F0D3FF0D98A84203D0A368591CE3
:100D400009F004F82A003B689C461B685B690D9516
:100D50009846B64B43CB43C2198811809B78937059
:100D60000F2363600023E375D84500D042E162465B
:100D7000D0690193AE4BFA22009314212B0001F0AD
:100D8000ADFF0D98A84203D0A368591C08F0DEFF00
:100D90003E680022336807A95B6920009846172344
:100DA0000D9507932AF09EFB079B1722A1490D90F2
:100DB000A36008F0B5FF0023079A0D9962608B5479
:100DC000D84500D020E18722F0690193984B142187
:100DD000009352000D9B01F081FF0D98A84203D0B3
:100DE000A368591C08F0B2FF3E680022336807A9C7
:100DF0005B692000984612230D9507932AF072FB39
:100E0000079B12228C490D90A36008F089FF0023F4
:100E1000079A0D9962608B54D84500D01AE191224F
:100E2000F0690193824B1421009352000D9B01F055
:100E300055FF0D98A84203D0A368591C08F086FFFF
:100E40003E680022336807A95B69200098461C238E
:100E50000D9507932AF046FB079B1C2277490D90BE
:100E6000A36008F05DFF0023079A0D9962608B5420
:100E7000D84500D0F9E0B422F06901936C4B1E21F3
:100E8000009352000D9B01F029FF0D98A84203D05A
:100E9000A368591C08F05AFF3E680022336807A96E
:100EA0005F691C23200007930D952AF01BFB079B0D
:100EB0001C2263490D90A36008F032FF0023079ABB
:100EC0000D9962608B545F4500D07FE0BE22F069CF
:100ED0000193574B2821009352000D9B01F0FEFE19
:100EE0000D98A84203D0A168013108F02FFF00221D
:100EF000544B1A6023B0F0BCBB46B246A946A0468C
:100F0000F0BD2A00002800D1BDE628002BE009AB87
:100F1000002800D12DE6180007E00022210007A8D4
:100F20002AF0E0FA0D9B079009934146049A08F0D5
:100F3000F7FE00210D98079B08901954039B9A68AF
:100F40005E4500D11DE601910092534614224846A9
:100F500007A9B0473BE60022200007A92AF0C2FA01
:100F6000079B2060A360049A414608F0D9FE002345
:100F700007982268606013545E4500D189E60193AA
:100F8000314B8C220093210053464846B0478BE6F4
:100F9000002301932D4B7822009321005346C04734
:100FA00035E601932A4B462200932800232313A9F8
:100FB000C047AFE50193254B4622009328000F233D
:100FC00013A9C0477AE5002198472AE50193FC233D
:100FD0001B020093BE232822210030005B00B8478B
:100FE0007EE701931A4B142200932100E62360460A
:100FF000C047A0E60193FC231B0200931422FA23AE
:1010000021006046C047BCE60193FC231B0200930D
:1010100087231422210030005B00C047DDE6C04674
:10102000F3CF3C00A903001084E9041094E90410F4
:1010300000C33C00A4E90410BCE90410D0E904108A
:10104000F0E90410D04A0020FCFCFC0000FCFC008D
:10105000FCFC00000193FC231B020093912314224B
:10106000210030005B00C047E3E60193094B1E22DC
:101070000093B423210030005B00C04705E7984788
:1010800080B2E8E42800984780B2D8E4984780B25C
:1010900028E6C04600FCFC0070B53E4C3E4A206885
:1010A0008AB00368DB68934252D10021C06901F025
:1010B0002BF92568394A2B681E699B69934250D1E8
:1010C000E86901F0D3FB364B9E424FD1FC22013838
:1010D00083B2E8690192E43A00920021002201F013
:1010E00003F9256800222B6803A95E691F2306AC5B
:1010F00004A8039304942AF0F5F9039B1F222949BD
:101100000693049008F00CFE0022039B04990593BB
:10111000CA54254B9E4233D1244BE8690193244B9A
:101120000A2100930532049B01F0D8FD0498A042E7
:1011300003D00699013108F009FE1E4B18680028FB
:1011400001D003F067F901221B4B1A600AB070BD91
:10115000002198472568114A2B681E699B699342B4
:10116000AED0280098470E4B9E42AFD0FC2301938F
:10117000E33B00930022030000212800B047B0E7C2
:10118000FC2301930D4B0A2200932800052304A998
:10119000B047CBE7D44A002049030010A903001050
:1011A000B503001010EA041051050010F30C000004
:1011B000F3CF3C00E04A0020D04A0020FCFCFC00B9
:1011C00070B51E4D04002B68002B14D01C492AF06A
:1011D000C9FC002810D020001A492AF0C3FC0028BE
:1011E00005D0200018492AF0BDFC002807D12100B5
:1011F000286803F075F970BDFFF700FCFBE72000DD
:1012000012492AF0AFFC0028F1D0200010492AF042
:10121000A9FC0028EBD020000E492AF0A3FC0028EE
:10122000E5D06368012BE6D1236819780B00203BD9
:101230005E2BE0D8286802F0A9FFDCE7E04A002036
:1012400008E70410E8E604103CE7041024E7041063
:101250005CE7041040E7041070B5164D04002B68DD
:101260000168002B0CD0144A144809F02BF82B68A5
:10127000002B0CD0012B02D12000FFF7A1FF70BD85
:101280000F4A0E4809F01EF82B68002BF2D12000FF
:101290000C492AF067FC002808D020000A492AF0EF
:1012A00061FC0028EBD1FFF7A9FBE8E7FFF7F4FEAC
:1012B000E5E7C046D04A002038EA041040EA0410AE
:1012C00030EA0410E8E6041008E70410F0B55746C9
:1012D000DE464E464546DA4BE0B518689A46036846
:1012E000D84ADB699DB0934200D0BFE2C06901F0EB
:1012F000C1FA05000490D44B002718681E3D002851
:1013000002D003F083FD070005F076FA002900D132
:10131000E5E1FA220023920007F078FDFA21890026
:1013200007F036FDC94C03902378002B1FD053469D
:101330001E6833681A699B699046C54A934200D07B
:10134000A1E2F06901F092FAC24B984500D0A0E208
:1013500000210138AAB283B2F069019111001D3158
:1013600089B20091002100F0BFFF00232370BA4B27
:1013700098461B78BB424CD05346186803681C69DA
:10138000B44B9C4200D006E30023AAB2C06901938B
:1013900013000E339BB200930A219F2300F0A4FF99
:1013A00053461B6816AE99461B6814AC5B691496CD
:1013B0009B46002F00D117E1112300220EA9200027
:1013C0000E932AF08FF80E9B1122A4491490A3606B
:1013D00008F0A6FC00230E9A149962608B54A04A70
:1013E000934500D0EAE24946C86901939D4B0A2122
:1013F0000093AAB2149B01F071FC1498B04203D080
:10140000A168013108F0A2FC0122974B1A704346F3
:101410001F70964B964A994690461B6812689A42EE
:1014200050D05346186803681C698A4B9C4200D010
:101430009EE20023AAB2C069019313000E339BB24F
:1014400000930423C821FF3300F04EFF43461B687E
:10145000002B00D1C1E0834B0793864B0593FC23FF
:101460001B02089353461B6816AE9B461B680598E3
:101470005B691496069341F023FD0599070002006D
:10148000300008F04DFC0023754A06991597F719AE
:1014900014AC3B70914200D060E25946C869019398
:1014A000079BC8210093AAB2149B01F017FC149863
:1014B000B04203D0A168013108F048FC43464A46D7
:1014C0001B6813606C4F03993A688A4258D05346A0
:1014D000186803681C695F4B9C4200D051E20023EE
:1014E000AAB2C069019313000E339BB28721009307
:1014F00040234900FF3300F0F7FE14AC2021039B8A
:101500005E4A200007F078FB53461B68200099468E
:101510001B685B6906930EAB9B4610AB05930E935D
:1015200041F0CEFC060003000C900F2800D9B3E078
:10153000012800D094E1594622780A72059A59464A
:101540004B600021D154464B069A9A4200D0BBE032
:101550004B46D869434B01910F310093AAB20E9BC1
:10156000FF3101F0BBFB0E98059B984204D05B460F
:101570009968013108F0EAFB039B3B6043461B6816
:10158000012B00D1B0E03E4D2B6801331ED05346F5
:101590001868049A03680F3A1C692E4B9C4200D0CD
:1015A00068E1002392B2C069019313000E339BB22D
:1015B000009340230A21FF3300F096FE012252429D
:1015C000D3172A606B6000222E4B1A701DB0F0BC3E
:1015D000BB46B246A946A046F0BD2B4B07932B4B0A
:1015E00005932B4B08933DE7122300220EA9200000
:1015F0000E9329F077FF0E9B122214902549A360C9
:1016000008F08EFB0E9B149A6360D754144B9B45D5
:1016100000D0C9E14B460A21D869AAB2149B0197B0
:10162000009701F05BFB1498B04203D0A168013130
:1016300008F08CFB00220C4B1A7043461F70E8E642
:10164000D44A00209D030010DC4A00200C1F00201B
:10165000A9030010B5030010564F00205CEA0410E7
:101660005105001000C33C005C4F00205C4400208A
:10167000D04A002038EA04106044002084EA0410B4
:10168000101F0020554F0020F3CF3C0030EA04101B
:10169000FCFC000070EA0410002258460CA929F056
:1016A00021FF5B460C9A0E909A603200210008F0F0
:1016B00037FB59460C9B0E9A4B600021D154DF4BEF
:1016C000069A9A4200D143E714008722DC4B01912D
:1016D000009359462B0048465200A04743E7FA21A1
:1016E000890007F055FB19E6D64E3168002900D174
:1016F00049E70CA801F088FE0D9B0C9C306806930E
:10170000079401F087FE8146306801F0CBFECE4D94
:1017100003902B689C4200D15AE153461868049A02
:1017200003680F3A1C69C94B08929C4200D0DBE168
:10173000002392B2C069019313000E339BB2009351
:101740000A21812300F0D0FD069A079B14AC0132D8
:101750002021013300922000BD4A07F04DFA534684
:101760001B68200098461B685B6909930EAB9B467B
:1017700010AB05930E9341F0A3FB070003000B9001
:101780000F2800D974E1012800D050E15946227891
:101790000A72059A59464B600021D154A74B099A09
:1017A0009A4200D096E16B461A8C4346D869A94B01
:1017B000019100930A310E9B01F090FA0E98059B5F
:1017C000984204D05B469968013108F0BFFA079B44
:1017D0002B60069B6B60A04B039A9B461B78934241
:1017E00000D182E053461868049D03680F3D1C69D0
:1017F000964B9C4200D07FE10023AAB2C0690193BE
:1018000013000E339BB2009340239621FF3300F068
:101810006BFD039B002B46D0534616AE32001B686F
:1018200014AC9C461B685B69149698468B4B83CB23
:1018300083C21B7813700D23636000237F4A637596
:10184000904500D033E16146AAB2C8690193009384
:101850009621330001F042FA1498B0423ED141E0A3
:10186000059A002800D16AE610001EE79847050097
:10187000049040E5002301930F33009328330A219D
:10188000FF33A0479AE630009847704B984500D147
:101890005EE5002301931E3300932A00030000211C
:1018A0003000C04761E514AC2000316801F0FEFD56
:1018B0005346186803685E69604B9E4200D000E1A1
:1018C000039BC0690193634B96210093AAB2149BBA
:1018D00001F004FA149816AB984203D0A1680131C4
:1018E00008F034FA5A46039B13705D4F3B784B4522
:1018F00000D16BE653461868049D03680F3D1C69D0
:10190000524B9C4200D000E10023AAB2C06901936F
:1019100013000E339BB28721009340234900FF330D
:1019200000F0E2FC4B46002B58D05346186816AE28
:10193000036814AC5B69149698464A4B1A68169271
:101940001B793E4A3371052363600023637390451E
:1019500000D0A8E0C069AAB2019358E00193089BA7
:101960000F000093C8222B0021005846B8479EE57F
:10197000002301930F3300932A00C8212D33A04781
:1019800064E50023872101930F3300932A0023335A
:101990004900A047B1E5002301930F3300932A00CB
:1019A0000A218733A047FBE4FC231B0400930A228F
:1019B0002B00210048460197D84734E60193FC23C9
:1019C0001B0200930A222B0021004846D84714E549
:1019D000069B6A68934200D09FE6FCE6534618686F
:1019E00016AE036814AC5B69149698461E4B1A68D1
:1019F00016921B793371052363604B4663730F4B5B
:101A0000984545D14B46C0690193184BAAB287212E
:101A100000934900330001F061F91498B04203D0FB
:101A2000A168013108F092F94B463B70CEE5059A6A
:101A3000002800D1AEE6100023E0C046510500109A
:101A400000FCFC00E04A0020101F0020B50300103D
:101A50008CEA0410F3CF3C00544F002098EA0410A5
:101A6000554F0020A8EA0410B0EA041000C33C005F
:101A7000002258460BA929F035FD5B460B9A0E90C3
:101A80009A603A00210008F04BF90B9B0E9A81E610
:101A90004B460193FC231B028722009321002B005D
:101AA0005200C047B9E70193FC231B04F4E70193FC
:101AB000FC231B04009396222B0021006046C047A4
:101AC000CAE6039B96220193154B210000932B003D
:101AD000B047FFE6134B1400019100930A225946C8
:101AE0004046089BA04769E6002301930F3300930B
:101AF0000A216933A04727E6002301930F3300939F
:101B00002A0096219B33A04783E600238721019377
:101B10000F3300932A0023334900A04702E7C04651
:101B2000FCFC0000FCFCFC00F8B5FA2608F0D6FB33
:101B30001E4808F06DFA1E4808F06AFA1D4808F0C1
:101B400067FA1D4808F064FA1C4808F061FAFEF7CD
:101B500053FDFEF761FDFEF73FFEFEF7C7FEFEF701
:101B60004DFF174808F054FA0025164FB60013E051
:101B7000FA220023920007F049F90400386800288F
:101B800001D003F05BFE631BB34202D3FFF79EFB61
:101B900025000A2004F042FD04F02EFE0029E7D1C2
:101BA000FA21890007F0F4F80400E7E7B8EA041026
:101BB000DCEA0410ECEA04102CEB041060EB0410D7
:101BC00098EB0410DC4A0020064B0822083303601F
:101BD0000023C26008324360836002614361836115
:101BE0007047C04678EC04107047C04610B5CC680A
:101BF00062434C69A4460C698969634362445B187B
:101C00000260436010BDC0460B4B10B51B68002B33
:101C100011D0196A00290EDB0122140098798A403C
:101C20008440D0200006446124200024A0211C54BC
:101C3000024BC905CA5010BD383E00200C040000FC
:101C4000F0B5DE4657464E464546E0B5012785B01D
:101C50009A460EAB90461A882A238B4639000568AF
:101C600003AE01923370AB79D02499402406A16170
:101C700039002B79012299408146A1612868310001
:101C80004CF0D2FC3900AB79994061610B005946A8
:101C90000A0A39003270A3612B7901229940286821
:101CA000616131004CF0C0FC3900AB7901229940F0
:101CB00061610B00594631703900A3612B792868A6
:101CC0009940616131004CF0AFFC3900AB7999402B
:101CD00061610B0051460A0A39003270A3612B7909
:101CE000012299402868616131004CF09DFC390067
:101CF000AB790122994061610B0051463170390086
:101D0000A3612B7928689940616131004CF08CFC0B
:101D10003900AB792B22994061613270A1613900A1
:101D20002B792A3A99402868A16131004CF07CFC5B
:101D30003900AB79994061610B0041460A0A3900CC
:101D40003270A3612B7901229940286861613100CA
:101D50004CF06AFC3900AB790122994061610B00BB
:101D6000414631703900A3612B792868994061613F
:101D700031004CF059FC3900AB79019A9940120AB4
:101D800061613270A16139002B7901229940286884
:101D9000616131004CF048FC3900AB79019A9940FF
:101DA00061613270A16139002B7901229940286864
:101DB000616131004CF038FC3900AB792C2299403C
:101DC00061613270A16139002B792B3A9940286802
:101DD000A16131004CF028FCAB799F4067610F9BFB
:101DE0000F991A0C03239A4332700A0A99439A43B3
:101DF000B170534659465B1A41467270019A0133DD
:101E0000521A01325A439246002A1AD0002301275F
:101E100098464B463A001D683100AB7928689A40D5
:101E2000A2613A002B799A40626103224CF0FCFBDC
:101E30003A00AB799A4001239C46E0446261C24576
:101E4000E7D105B0F0BCBB46B246A946A046F0BDFE
:101E5000F8B5CE46474680B50AAC24780F00A146B7
:101E60000BAC247808A90500087809A9A0460978D0
:101E70001C0214430004090604432C200C4307F001
:101E800055FF4B460372434643720C9B0026C360CA
:101E900001238361023B03622533076006744661B8
:101EA00006774460C6541D33FF33C384A0332860D3
:101EB00003852800C0BCB946B046F8BD10B5040083
:101EC0000068002802D02C2107F040FF200010BD40
:101ED000F0B5DE4657464E464546E0B504689B469B
:101EE000E38C82468946904685B08B4202D9238D89
:101EF000934206D805B0F0BCBB46B246A946A04600
:101F0000F0BD01262A23320003AF3B70A379D02510
:101F10009A402D06AA613200237939009A40206840
:101F2000AA6101224CF080FB3200A37931009A4073
:101F30006A6113004A46120A3A700192AB61237932
:101F4000012299402068696139004CF06DFB310035
:101F5000A3790122994069610B004946C9B23970E1
:101F600089463100AB612379206899406961390065
:101F70004CF05AFB3100A379019A994069613A709B
:101F80003200A961237939009A4020686A610122F0
:101F90004CF04AFB3200A37939009A406A61130081
:101FA0004A463A703200AB61237920689A406A61F0
:101FB00001224CF039FB3200A37939009A406A6162
:101FC00013002B223A703200AB61237920689A40CB
:101FD000AA6101224CF028FB3200A37939009A4013
:101FE0006A6113004246120A3A7091463200AB61B0
:101FF000237920689A406A6101224CF015FB320077
:10200000A37939009A406A6113004246D2B23A700D
:1020100090463200AB61237920689A406A610122C0
:102020004CF002FB3200A37939009A406A61130038
:102030004A463A703200AB61237920689A406A615F
:1020400001224CF0F1FA3200A37939009A406A611A
:10205000130042463A703200AB61237920689A40FF
:102060006A6101224CF0E0FA3200A37939009A400B
:102070006A6113002C223A703200AB612379206828
:102080009A40AA6101224CF0CFFA3200A379594656
:102090009A4053461C685B466A61D80A5A051F235A
:1020A0000B40C100800801430320920E8143397028
:1020B000910012090A4382437A70DA009B081343A5
:1020C00032008343BB70A37939009A40AA61320081
:1020D000237920689A406A6103224CF0A5FAA3791B
:1020E0009E406E6106E7C046F0B5DE4657464E4656
:1020F0004546E0B504689A46E38C83468946904697
:1021000085B08B4202D9238D934206D805B0F0BC2E
:10211000BB46B246A946A046F0BD01262A2332009E
:1021200003AF3B70A379D0259A402D06AA613200F7
:10213000237939009A402068AA6101224CF074FA90
:102140003200A37931009A406A6113004A46120AAC
:102150003A700192AB61237901229940206869614C
:1021600039004CF061FA3100A3790122994069618C
:102170000B004946C9B2397089463100AB612379F9
:1021800020689940696139004CF04EFA3100A3791A
:10219000019A994069613A703200A9612379390046
:1021A0009A4020686A6101224CF03EFA3200A3791D
:1021B00039009A406A6113004A463A703200AB61B6
:1021C000237920689A406A6101224CF02DFA32008E
:1021D000A37939009A406A6113002B223A703200C9
:1021E000AB61237920689A40AA6101224CF01CFA65
:1021F0003200A37939009A406A6113004246120AFC
:102200003A7091463200AB61237920689A406A6146
:1022100001224CF009FA3200A37939009A406A6130
:1022200013004246D2B23A7090463200AB61237935
:1022300020689A406A6101224CF0F6F93200A379D5
:1022400039009A406A6113004A463A703200AB6125
:10225000237920689A406A6101224CF0E5F9320046
:10226000A37939009A406A61130042463A703200FD
:10227000AB61237920689A406A6101224CF0D4F95D
:102280003200A37939009A406A6113002C223A7017
:102290003200AB61237920689A40AA6101224CF098
:1022A000C3F93200A37939009A405B461C68534653
:1022B0006A611A0C03239A433A705246120A9A43EF
:1022C0007A7052469A43BA703200A37920689A40D5
:1022D000AA61320023799A406A6103224CF0A4F982
:1022E000A3799E406E6111E730B583B006AC2488B7
:1022F000994201D8A24201D903B030BD079D009494
:102300000195FFF79DFCF7E700B5026883B0D38C19
:102310000191128D013B013A92B2009200210022FC
:102320009BB2FFF78DFC03B000BDC046F0B5C646BA
:1023300000B50568070082B06961022947D043DC17
:10234000002944D0012904D1F0235B00EB84A03B99
:102350002B8548224B1E9046022B04D860235943FC
:102360003839CBB2984601246A463623D37122000D
:10237000AB79D0269A403606B26122002B792868C4
:102380009A406B46B261D91D01224CF04DF92200F2
:10239000AB793D689A406B4672614246DA71220021
:1023A000AB7928689A40B26122002B799A406B463B
:1023B0007261D91D01224CF037F9AB799C407461F0
:1023C00002B080BCB846F0BD0329BDD0C1E7A02350
:1023D0005B00EB84A0332B85BBE7C046F0B54646D7
:1023E000D6464F46C0B5036880461D7C8AB0002D96
:1023F00006D001200AB0E0BCBA46B146A846F0BDFE
:10240000F44807F005FE434601261C683700E168E2
:1024100020680AF0C9F80121E07903F051FA01219E
:10242000207A03F04DFAA07903F062FA207903F0E4
:102430005FFA607903F05CFA3000A37931009840CC
:10244000D0231B06586222799140596262799740E5
:102450005F62586159615F61607AFF2821D0042171
:1024600003F02EFAFF20617A0A07520F93009B189F
:10247000D94A9B009A1815609560D5601061BF38E5
:1024800050601660D54A944663440E4200D0BEE1C7
:10249000D349BF301A684240114080225201134391
:1024A00019600126434632001C68D02763793F0635
:1024B0009A400A207A6104F0B1F8320063790A2068
:1024C0009A40BA6104F0AAF83200637996209A40E3
:1024D0007A6104F0A3F8434632001C6806AD2E7002
:1024E000A37929009A40BA613200237920689A4082
:1024F000BA6101224CF098F83200A379C8209A40C2
:102500007A6104F08BF8112332002B70A379290033
:102510009A40BA613200237920689A40BA61012258
:102520004CF082F83200A379C8209A407A6104F016
:1025300075F8362332002B709946A37929009A400A
:10254000BA613200237920689A40BA6101224CF0C6
:102550006BF83200A37929009A407A61130048226F
:102560002A703200BB61237920689A407A61012287
:102570004CF05AF83200A37929009A407A6113008E
:102580003A222A703200BB61237920689A40BA61EE
:1025900001224CF049F83200A37929009A407A616F
:1025A000130066222A703200BB61237920689A40AA
:1025B0007A6101224CF038F83200A37929009A4060
:1025C0007A611300C5222A703200BB61237920682A
:1025D0009A40BA6101224CF027F83200A379290011
:1025E0009A407A61130000222A703200BB6123797D
:1025F00020689A407A6101224CF016F83200A379E3
:1026000029009A407A6113004A462A703200BB6161
:10261000237920689A407A6101224CF005F8320053
:10262000A37929009A407A61130080222A7032002F
:10263000BB61237920689A407A6101224BF0F4FF54
:102640003200A37929009A407A611300C2222A70CD
:102650003200BB61237920689A40BA6101224BF0B5
:10266000E3FF3200A37929009A407A611300A72280
:102670002A703200BB61237920689A407A61012276
:102680004BF0D2FF3200A37929009A407A611300FF
:10269000E0222A703200BB61237920689A40BA6137
:1026A00001224BF0C1FFA3794E4A9E409C4602ABEB
:1026B00019007E61994649CA49C112884E460A806E
:1026C00016226A44924601229146327863462A7065
:1026D0004A469A40BA614A46237929009A402068BE
:1026E0007A6101224BF0A0FF4A46A37901369A4055
:1026F0009C467A61B245E8D1E1232B70BA614A4623
:10270000237929009A402068BA6101224BF08CFF9E
:102710004B46A279290093407B61334BC1CBC1C1A9
:102720001B88D0270B8026236B449A466B46DE1D00
:10273000012399463F062B78310033704B46934076
:102740004A46BB61237920689A407A6101224BF0A6
:102750006BFF4B46A279013593407B61AA45EAD1D4
:10276000212232704A46BB61237931009A402068A9
:10277000BA6101224BF058FF4A46A37931009A40D2
:102780007A611300292232704A46BB61237920689E
:102790009A40BA6101224BF047FF4A46A3793220A2
:1027A0009A407A6103F03AFF434600201C6809F022
:1027B00097FF206200281BDA43461B684046596990
:1027C000FFF7B4FD434601221B6808481A7407F05E
:1027D0001FFC0EE6B0FC0410000005400C00054094
:1027E000FFFF00000CFD04101CFD0410DCFC0410B5
:1027F000094B0A4A1C604B46834009490B20136071
:1028000003F06EF901210B2003F032F9D4E7FF2029
:10281000044900043EE6C046383E0020042400502F
:10282000091C00100000FFFF03684942587AC9B232
:10283000FF2811D00207520F93009B18084A9B00F3
:1028400094466344C20708D4064A186841400A40C7
:10285000802149010B431A607047034A0904F4E7D9
:102860000C000540FFFF00000000FFFF0368D88C4C
:102870007047C0460368188D7047C046F0B5DE4605
:1028800057464E46454692460322E0B58FB00B911F
:1028900019998146080C9043C0B20790080A9043EA
:1028A000C0B2089018981B01000C9043C0B205906C
:1028B0001898CB46000A9043C2B206920B4A9B1866
:1028C0000393534610339BB20A9303239943534611
:1028D00009910093009B01241B0A0293039B1B7820
:1028E00001930B9B984607239A46F2E0B0EC041044
:1028F0005B461D68EB8C434500D8E1E02B8D009AC8
:10290000934200D8DCE02A2321000DAE3370AB796E
:10291000D02799403F06B96121002B7901229940C7
:102920002868B96131004BF07FFE2100AB792000AF
:10293000994079610B004146090A31700491BB61ED
:102940002B79012298403100786128684BF06CFEA9
:102950002000AB7901229840786103004046C0B264
:10296000307081462000BB612B793100984078613E
:1029700028684BF059FE2000AB79049998407861A3
:1029800031702100B8612B79012299402868796162
:1029900031004BF049FE2100AB7901229940796169
:1029A0000B00494631702100BB612B7928689940A2
:1029B000796131004BF038FE2100AB792B22994030
:1029C00079613270B96121002B79286899402A3ADF
:1029D000B96131004BF028FE2100AB79200099400D
:1029E0000B007961029901223170BB612B793100B2
:1029F0009840786128684BF017FE2000AB796A4652
:102A0000984012787861914632702200B8612B7933
:102A100031009A4028687A6101224BF005FE2200BD
:102A2000AB7902999A407A613170BA6122002B79B0
:102A300031009A4028687A6101224BF0F5FD2200AE
:102A4000AB7931009A407A6113004A463270220015
:102A5000BB612B7928689A407A6101224BF0E4FD32
:102A60002200AB7931009A407A6113002C22327037
:102A70002200BB612B7928689A40BA6101224BF091
:102A8000D3FD2200AB7931009A405B467A61032284
:102A90001D68059B3370069B7370189B934322003F
:102AA000B370AB7928689A40BA6122002B799A40BA
:102AB0007A6103224BF0B8FD2200AB799A407A612B
:102AC000434601339BB298465346013B9A4600D297
:102AD000F2E05246019B13411C4200D008E75B46DE
:102AE0001D68EB8C4345EBD92B8D009A9342E7D9B7
:102AF0002A2321000DAF3B70AB79D02699403606D2
:102B0000B16121002B79012299402868B161390017
:102B10004BF08AFD2100AB792000994071610B00D8
:102B20004146090A39700491B3612B79012298401A
:102B30003900706128684BF077FD2000AB790122E5
:102B40009840706103004046C0B238708146200052
:102B5000B3612B7939009840706128684BF064FDAF
:102B60002000AB7904999840706139702100B06100
:102B70002B79012299402868716139004BF054FD8E
:102B80002100AB790122994071610B0049463970EF
:102B90002100B3612B7928689940716139004BF0AD
:102BA00043FD2100AB792B22994071613A70B161EC
:102BB00021002B79286899402A3AB16139004BF0FD
:102BC00033FD2100AB79200099400B00716102991F
:102BD00001223970B3612B793900984070612868FF
:102BE0004BF022FD2000AB796A4698401278706164
:102BF00091463A702200B0612B7939009A402868DA
:102C0000726101224BF010FD2200AB7902999A40CB
:102C100072613970B26122002B7939009A402868BC
:102C2000726101224BF000FD2200AB7939009A401D
:102C3000726113004A463A702200B3612B7928680A
:102C40009A40726101224BF0EFFC2200AB7939000F
:102C50009A40726113002C223A702200B3612B79E2
:102C600028689A40B26101224BF0DEFC2200AB7969
:102C700039009A405B46726122001D68079B3B70D9
:102C8000089B7B70099BBB70AB7928689A40B26146
:102C900022002B799A40726103224BF0C5FC22007E
:102CA000AB799A40434601339BB2984653467261D2
:102CB000013B9A4600D30CE7039B0A9A0133039326
:102CC000009B01339BB200939A4200D002E60FB002
:102CD000F0BCBB46B246A946A046F0BDF0B5D6460C
:102CE00000B5070082B018001D000C00924640F0AD
:102CF000E7F82E18B54209D11CE03B680834DB8C9C
:102D0000A4B2A34216D90135AE4213D02B781A00D3
:102D1000203A5E2AF1D8099A21000192089A3800D7
:102D200000925246FFF7AAFD3B680834DB8CA4B240
:102D3000A342E8D802B080BCBA46F0BD044B818003
:102D4000083303600023C28001814281037370470E
:102D50002CFD04107047C046F0B557464E46454618
:102D6000DE461C00E0B50F0083B00CAB00269E5F72
:102D70000DAB1B8881460193B31AD9175B184B40E2
:102D8000E11BCD174919B446A24638009846009277
:102D900069408B4206DDA446009734001700884640
:102DA00056460200A7423FDD381B85B2AB4665465A
:102DB00082460098451BE8172D184540504600B242
:102DC000A846C50F2D1801206D108246B24201DCC5
:102DD0003E4A9246424692B28B4238DCB846009256
:102DE000002C5BDB4B4608229B5EA34256DD002E87
:102DF00054DB4B460A229B5EA4B2B34250DC009BDC
:102E0000EB1A9AB21DB21B0403D556445A4436B28B
:102E100015B2013424B2A045E2DA03B0F0BCBB46DF
:102E2000B246A946A046F0BDE01B85B200B2AB4653
:102E3000C50F2D186D10B24229DA160022003C0091
:102E4000170001229246424692B28B42C6DDB84636
:102E50000092002E0BDB4B4608229B5EB34206DD40
:102E6000002C04DB4B460A229B5EA34222DCA4B268
:102E7000009BEB1A9AB21DB21B0403D556445A4468
:102E800036B215B2013424B2A045E2DAC5E7160025
:102E900022003C0017000D4A92469BE7A4B2AEE721
:102EA0004B461B6821009B6848461F00B2B2019B3D
:102EB000B847A4E74B461B68A4B29B6822001F00DA
:102EC0004846019BB1B2B847D2E7C046FFFF0000B9
:102ED000F0B5CE46474680B583B01C000AAB00254E
:102EE0005D5F0BAB1B88013C99466418160024B249
:102EF00001930092230080460F00FFF72DFF4B4601
:102F0000013DAD192DB22A003900404601930095CC
:102F10002300FFF721FF4B46320039004046019362
:102F200000953B00FFF718FF4B463200019321004C
:102F3000230040460095FFF70FFF03B0C0BCB94621
:102F4000B046F0BD7047C0460800704710B5036832
:102F50005B68984710BDC046F0B5DE464E46454614
:102F600057460400E0B585B000220B008946816A0F
:102F700002A8FEF73BFEA06A029E0368E5691B6A91
:102F8000039F98474543A06A03689B699847831B42
:102F9000A06A984603681B6A98472D18454500DDCE
:102FA0004546A36A9A461B6850461A695B6A93466F
:102FB0009847002331000193009098463A002B0077
:102FC0005046D8474B465900236849449C46C9009F
:102FD00061444B68002B09D04246A06A0368019205
:102FE000064A00925C6932003B00A04705B0F0BC85
:102FF000BB46B246A946A046F0BDC046FCFCFC005C
:10300000F0B5DE4657464E464546E0B50D00110088
:1030100004008BB01A000B00816A02A8FEF7E6FDDF
:10302000029BA66A9846039B3000994633681A694A
:103030001B6A934698470700A06A03685B6A984733
:1030400000239A464A464146019300903B003000D7
:10305000D84706AE2A00012104A8049628F060FA99
:103060005246A06A04A9036801920A4A00925C6968
:1030700042464B46A0470498B04203D0069901311E
:1030800006F064FE0BB0F0BCBB46B246A946A046B3
:10309000F0BDC046FCFCFC00F0B5DE4657464E468F
:1030A0004546E0B589B002AB984604AB4246029370
:1030B00099460023040003604360836053601372E9
:1030C00018200F0006F032FE18239A468244534619
:1030D000A360029B05009B4643465E685B462060FA
:1030E00008302860002B56D001960F2E3FD8012EB5
:1030F00056D11B782B7200236E608355534602987D
:103100006360484504D043469968013106F01EFECD
:10311000002301223868E36023612275A3844F32C3
:103120007B68A261513A2262A062E362002B02D066
:103130005A6801325A6000282AD003689B69984770
:103140000500A06A03681B6A9847010028000A3836
:1031500005F0F6FDE061092818DC0A23E361200090
:1031600009B0F0BCBB46B246A946A046F0BD00225D
:10317000280001A928F0B6F9019B2860AB60320055
:10318000594606F0CDFD019E2868B4E72628E6DD05
:103190002623E361E3E7002EADD003481DF004FBD6
:1031A000002EA8D0EBE7C04658E9041070B5C46AF9
:1031B0000600002C04D06368013B6360002B1DD027
:1031C00034687568AC420CD02300206808339842FC
:1031D00010D0A3681834591C06F0B8FDA542F3D1ED
:1031E0003568002D04D0B3682800591B06F0AEFDE9
:1031F000300070BD1834A542E6D1F1E723680C4ACF
:103200009B6893420DD1A368013BA360002BD7D1EB
:1032100023680849DA688A4206D120005B6898472B
:10322000CEE720009847EEE720009047C8E7C04669
:10323000452F00104D2F0010F0B5DE46454657468D
:103240004E46E0B5C7B0009024A88A461DF004FCA5
:10325000654BE8222493002306ADAB500432AB52F9
:103260000022002342924393449245935F4B0C21EA
:103270005A68494294466144069201920A689B68E2
:10328000A81803608B46002102931DF087FB584F5E
:1032900007A83B001433AB6706971CF08FFC07A907
:1032A00024A81DF07BFB53461022196807A81CF0C8
:1032B0006BFE069B0C3B002800D180E018680021C3
:1032C00028181DF01DFB10A809F054FA03900028DF
:1032D0003DD0009B1C685B689846A34211D004ABAC
:1032E000DE1D0A23994662682168280027F000FD48
:1032F0004B46012231001834337027F0F9FCA04509
:10330000F1D107A81CF0CCFD002860D024230022B6
:10331000384C00992000CA543749113227F0E8FC94
:103320005346200006CB27F0E3FC036804000C3B67
:103330001B68C318DE6F002E53D0337F002B31D0B3
:103340002723F15C200027F063FC27F0DDFB2B4BEB
:10335000069707A814376B60AF671CF0A1FD10A893
:1033600009F0DCF9264B0EA86B6009F09FFD019B6C
:10337000842206935B461B6852009B1804AA94465D
:103380006344029A013BFF3B1A60174B24A8AB67CA
:103390001DF0A0FB039847B0F0BCBB46B246A9465F
:1033A000A046F0BD30000FF0FDFE3368154A9B6962
:1033B0000A219342C6D0300098470100C2E7042199
:1033C00018682818436919431DF09AFA7BE704210D
:1033D000069B0C3B18682818436919431DF090FAA6
:1033E00094E71DF0D1F9C046F82E05103C2E0510CB
:1033F000582E05108841002044FD0410DC2D0510D6
:1034000074380510492F00100B69CA6843600260C8
:103410007047C0462423C05C7047C046F0B5C6461E
:10342000040000B5806A0021036886B0DB68984715
:10343000636822689B1A002B2EDD00260025184F9A
:1034400027E02B000022A16A04A8FEF7CFFB002290
:10345000059BA06A0293049B013503932368991985
:103460000368019200975B69039A9846029BC047E4
:103470006368226818369A1AD21093009B181901B3
:103480005B1819025B1819045B185B009B18AB42B0
:1034900002DDA369AB42D4DC06B080BCB846F0BD07
:1034A000FCFCFC002523C05C7047C046252370B59A
:1034B000CB5C040096B0002B17D0030008330360E8
:1034C0002423002206A9069328F00CF8069B242248
:1034D0002649A360206006F023FC0022069B216899
:1034E0006360CA54200016B070BD26004B680A689D
:1034F0000836981AC010820012181301D21813024D
:10350000D2181304D318CA695B0002920A691B1807
:1035100001928A6906A840210092154A05F06CFBC9
:10352000266006A83FF0CCFC0500030005900F289C
:103530000BD8012806D16A46127E227200226360EF
:10354000F254CFE70028F9D008E00022200005A9B6
:1035500027F0C8FF0600059B2060A36030002A000A
:1035600006A906F0DDFB059B2668E7E758FD041079
:1035700080FD0410F8B54746CE464468050020009B
:10358000260080B5270008302060183E3368103FC1
:1035900089469046BB4200D19BE02360B368A3609C
:1035A000736837606360002373603B706E68002748
:1035B0003300340018336B604B46183CE21AD110CC
:1035C0008B005B181D015B191D025B191D045D1941
:1035D0006D006D18283E002A15DC2CE022002032F8
:1035E00090424BD0A3616368226AE361A3682362BF
:1035F000002848D02060A2602368013D6760183E23
:103600001F70002D17D0183C2368A069B342E5D184
:103610006268002A06D0012A43D0310006F080FB00
:10362000A0696268E26187542368013D6760183EC3
:103630001F70002DE7D14B461868434619680833C0
:10364000994233D04A46083290421ED04C464A46F0
:10365000926821604446494664684C604446A468C8
:103660008C60002819D0434618609A6000234246B7
:1036700053600370C0BCB946B046F8BDA36163682F
:10368000E361A36823622660B6E74A4611604146BB
:10369000496851604146896891604246180013604C
:1036A000E4E7237A0370A0696268BBE743465A687F
:1036B000002A07D0012A11D006F032FB43465A688F
:1036C0004B4618684B465A6000238354434618689B
:1036D000CCE71022390006F023FB61E71B7A037068
:1036E00043465A684B461868ECE7C0460368F0B595
:1036F0004E46DE46574645469946E0B515004A46D1
:1037000043680E00991AC9108A0052189B4613018B
:10371000D2181302D2181304D3185B00754A5B1831
:10372000824685B0934200D1E0E0002B00D1A1E0B9
:103730005A009046934200D9B1E04B46F41A4346F2
:10374000002B00D09EE000939C46644420002F682C
:1037500008306D682060002F00D1BBE003950F2D6D
:1037600000D9A1E0012D00D0BCE03B7823720023FA
:1037700065604355B14500D1AAE04F464D46009CD7
:10378000083709E02360AB681837A3606B68183509
:1037900063601834B54210D02000083020602B68D8
:1037A000BB42EFD13900102206F0BAFA6B68183527
:1037B000636018371834B542EED133004A46183BDF
:1037C0009B1ADA084C4B5343DB00DB0801335A00E9
:1037D000D318009ADB009446634418331C0001930D
:1037E000B3452FD037003500083709E02360AB68B8
:1037F0001837A3606B681835636018345D4510D0C6
:1038000020002B6808302060BB42EFD13900102225
:1038100006F086FA6B6818356360183718345D4512
:10382000EED15B469E1B183E334BF6087343DB001C
:10383000DB0801335A00D318019ADB0094469C44FC
:10384000634601934B46002B06D053464A469B687D
:103850004846991A06F07AFA5246009B019913607D
:1038600043445160936005B0F0BCBB46B246A946E4
:10387000A046F0BD013398464B46F41A4346002B50
:1038800000D160E71B4A93422AD85A00D318DB00C4
:103890009846404606F04AFA0300009054E74B462B
:1038A000F41A164B9846F4E70022200003A927F0EB
:1038B00019FE039B2060A3602A00390006F030FA4D
:1038C0000023039D206865604355B14500D054E74F
:1038D000009B82E7002D00D149E709481CF064FFF6
:1038E0001300D2E7002D00D141E7E5E705481CF0C1
:1038F00073FFC04655555505ABAAAA0AF8FFFF7FCE
:1039000058E904109CFD04100368F0B54E46994632
:1039100057464546DE4614004A464368E0B50F0068
:10392000991AC9108A00521898461301D218130226
:10393000D2181304D3185B00624A5B18824683B026
:10394000934200D1BBE00122002B03D05A009342E6
:1039500000D9A9E04B46FD1A002A00D093E01823B5
:10396000009300239B4601935D44280026002368B2
:10397000083008362860B34200D19BE02B60A36872
:10398000AB60636826606B60002363602372B94597
:103990002ED04E465C464D46083609E02360AB68A3
:1039A0001836A3606B68183563601834BD4210D0B8
:1039B0002000083020602B68B342EFD13100102284
:1039C00006F0AEF96B681835636018361834BD42DE
:1039D000EED13B004A46183B9B1ADA083A4B534358
:1039E000DB00DB0802335A00D318DB005B44009392
:1039F000B84530D03E003D00009C083609E0236009
:103A0000AB681836A3606B68183563601834454599
:103A100010D020002B6808302060B342EFD1310075
:103A2000102206F07DF96B6818356360183618347B
:103A30004545EED14346DF1B183F234BFF087B4330
:103A4000DB00DB0801335A00D318009ADB009446F0
:103A50009C44634600934B46002B06D053464A468F
:103A60009B684846991A06F071F953465A461A60FF
:103A7000009A5A60019A9A6003B0F0BCBB46B24605
:103A8000A946A046F0BD0F4B9A4211D85600B61871
:103A9000F600300006F04AF9330083465B44019398
:103AA00018235B4400935FE74B46084EFD1AF0E78E
:103AB0001A00EBE71022310006F032F961E7044802
:103AC0001CF08AFE55555505ABAAAA0AF8FFFF7FE0
:103AD0009CFD0410F0B5C64688460368446800B5EE
:103AE000E21AD21093009B1819015B1819025B1897
:103AF00019045B185B0088B09B180500002704AE12
:103B000098451FDA34E0200008302060029BB34261
:103B100032D02360049B0193A360039B63606C68B5
:103B2000019318346C602B68E21AD21093009B1832
:103B300019015B1819025B1819045B185B009B18CC
:103B4000984515DB02AB1F72AB6802960397A34240
:103B5000D9D12800210002AAFFF7D6FE0298B04270
:103B600004D0049B591C019306F0F0F86C68DAE766
:103B700008B080BCB846F0BD1022310006F0D0F885
:103B8000CBE7C046F0B5DE464E46454657460400F4
:103B9000E0B5C16897B0FFF79DFFE36822695E005A
:103BA000F6182368F6009C4666447568AA4200D958
:103BB0008CE105AB03939846336899188946002930
:103BC00000D1FCE0AD1A0F950F2D00D9E7E0012DD3
:103BD00000D0CCE04B4642461B7803AF3B7200233B
:103BE0007D6053550BAA0992924632682369934629
:103BF000726891469A4200D999465B46002B00D1E3
:103C0000E4E04B460F930F2B00D9B7E0012B00D017
:103C100052E15B4652461B7809AD2B724B46494632
:103C20006B6000235354099B3068534500D1D3E0A7
:103C300032000832904200D1F5E033606B68B26820
:103C40007360AB68B360002800D1F1E02860AA601F
:103C500000236B6003700998504503D0AB68591C72
:103C600006F074F8E36801335E00F6182368F60086
:103C70009C46636866449946A368994500D1F2E082
:103C80004E4500D1B7E012AB9A467A681093039B79
:103C900091460F940193002B00D1EAE009920F2A7C
:103CA00000D9CEE0012A00D0FDE04021019B02AA0C
:103CB0001B785218137010AB52469B464B46494630
:103CC00011930023200053545A463100FFF752FC51
:103CD0001098504503D01299013106F037F8636807
:103CE000002020612068E1681B1AD81083001B188F
:103CF0001D015B191D025B191D045B195B001B187C
:103D0000A0694A1CE260834202D325200125255484
:103D1000002905DB994203DA2000FFF71DF9E2686C
:103D2000002A13DB63682168591AC9108B005B18DD
:103D300018011B1818021B1818041B185B005B18CD
:103D4000934203DD11002000FFF706F9242301222E
:103D50000398E254404503D0B968013105F0F6FFFD
:103D600017B0F0BCBB46B246A946A046F0BD4246DD
:103D700003AF002D00D132E7404619E009AD002223
:103D800028000FA927F0AEFB0F9B0990AB604A46B5
:103D9000594605F0C5FF0F9B099A99463EE703AFC8
:103DA000002238000FA927F09DFB0F9B0390BB60FA
:103DB0002A00494605F0B4FF0F9D039A0FE75B19EF
:103DC000002B00D1FEE644481CF0EEFC4B46002BD5
:103DD000F9D1524609AD21E76A68002A06D0012AC6
:103DE0005CD0514605F09CFF6A6830680023726021
:103DF000835409982CE748464B4608301860039EC8
:103E00007D68002E1AD00F950F2D36D8012D5AD16E
:103E10004A46337813724B465D600023435563680E
:103E2000183363605CE733606B687360AB68B360E2
:103E3000534609930BAB9A46180009E7002DEAD0C8
:103E4000C1E710AB1800002229009B4627F04AFB6F
:103E5000099B109012934A46019905F061FF099B56
:103E6000109A99462AE73A0031002000FFF73EFCFD
:103E700035E7002A00D11EE7A5E7002248460FA932
:103E800027F030FB4B460F9A18609A602A003100E9
:103E900005F046FF4B460F9D1868BCE72B7A037070
:103EA0006A683068A2E710AB9B464B465246002B2F
:103EB00000D103E75046CEE7524609AD002B00D1B2
:103EC000ACE6504663E7002DA5D0DFE72B000349A1
:103ED00003481CF099FCC04658E90410B8FD0410D2
:103EE000D0FD0410F0B5D64646464F460400C0B596
:103EF0000E008CB0C168FFF7EDFD237D002B00D1D3
:103F00009BE0E068236845002D182169E269ED0017
:103F10005D19914214DB6768FB1ADA1093009B1855
:103F200019015B1819025B1819045B185B009B18D8
:103F3000A269934200D289E025230122E2547FE066
:103F40006B68994200D910E10123002200962800F5
:103F500027F002FCA16AE368226904A8FDF746FE87
:103F60002269E369A06A9B1A99460368049E1B6A4A
:103F7000059F98474B4643439946A36A98461B685A
:103F800040461A695B6A9246984700233A000193BB
:103F900000904B4631004046D04722696B689A42F8
:103FA00000D9DEE008AB0693994628CDAA4200D995
:103FB000D2E099188A46002900D1ADE0AD1A0395E8
:103FC0000F2D00D996E0012D00D08BE053461B78D1
:103FD00006AA904613724A4643465D600023535535
:103FE00042465268002A09D0A06A414602680193FD
:103FF000604B009355693B003200A8472369226853
:104000000133236163689A1AD21093009B18190137
:104010005B1819025B1819045B185B009B18A269F6
:10402000934202D325230122E2540698484504D046
:1040300043469968013105F089FE24230122E254A8
:104040000CB0E0BCBA46B146A846F0BD06AB9846F7
:1040500008AB069342469946002329005360137229
:10406000A36818319F426ED08F425CD02000FFF7CA
:1040700081FA43461868484504D04346996801319F
:1040800005F064FEE368002201335800E360C018C5
:104090002368C0009C4600210123226160440096F1
:1040A00027F05AFB01216368226821619A1AD21015
:1040B00093009B1818011B1818021B1818041B18D2
:1040C0005B009B18A269934201D32522A154E268A8
:1040D000002AB2DB9342B0DD002331002000FEF75E
:1040E0008FFFAAE706AB4A469846002D00D173E73A
:1040F00048460AE006AB98460022180003A927F0BC
:10410000F1F94346039A06909A602A00514605F059
:1041100007FE039D069A5FE75B19002B00D14DE770
:1041200015481CF041FB28002030386011684945D3
:104130000ED039609368BB6043465B687B60636800
:10414000183363609EE72000FFF7DEFB069892E7D6
:10415000102205F0E5FDEFE72B00084908481CF0A8
:1041600053FB084906481CF04FFB0A000448064967
:104170001CF04AFBFCFCFC0058E9041008FE04108B
:10418000D0FD0410B8FD041024FE04102523C25CE9
:1041900010B5002A03D10A2902D0FFF7A3FE10BDF3
:1041A00042680168511AC9108A0052181401121984
:1041B00014021219140412195200521881698A4209
:1041C00002D30122C254EAE7FFF7DCFCE7E7C0466E
:1041D000F0B54546DE4657464E46E0B50369050054
:1041E0008BB0002B00DDADE0C368002B06DC0BB00C
:1041F000F0BCBB46B246A946A046F0BD5A00D31853
:104200000268DB00944606AA634404921E68924644
:104210005C68002E00D1CAE003940F2C00D9D4E0D2
:10422000012C00D0E6E0337802AA13745246002332
:1042300005941355EB686A685C00E4182B68E40089
:104240009C46182398466444A04490454CD043466D
:10425000D11AC81083001B181E019B191E029B193E
:104260001E049E197600361800293DDD0023270024
:10427000994620339B4620371AE0220008329042AC
:1042800000D19AE02360E369A2686360236AA360B7
:10429000002800D196E0A06122624B46013EE36116
:1042A000183744460370002E1DD018239C46E04466
:1042B000A3692068BB42E0D1E269002A07D0012A45
:1042C00000D191E0390005F02BFDE26920684B46F2
:1042D000626083544B46A069013EE361183744464F
:1042E0000370002EE1D16A681300183B1868103A79
:1042F0006B60904203D09968013105F027FDEB68AF
:104300000499013B5800EB60C0182B68C0009C4624
:10431000604443682B61059B1A00019327F04EFB14
:10432000012301225B422B6225332800EA54FFF768
:1043300075F80498504500D159E70699013105F008
:1043400005FD54E7C168FFF7C5FBEB685800C018CE
:104350002B68C0009C462B696044591E43689942F3
:104360004DD85A1A8B4200D0012227F091F92B69BF
:104370000122013B2B612423E9682962EA540029C8
:1043800000DA34E76B682A689A1AD21093009B18F7
:1043900018011B1818021B1818041B185B009B1827
:1043A000994200DB23E72800FEF7D6FD1FE7002C2B
:1043B00000D13CE714481CF0F7F92360E36963601F
:1043C000236AA3603800A76167E7002203A904A855
:1043D00027F088F8039B049006932200310005F033
:1043E0009FFC039C049A22E75B46E35C0370E2694E
:1043F00020686CE7002C00D119E71000EDE70A00F7
:10440000024803491CF000FA58E90410D0FD0410DA
:104410003CFE0410F0B50500806A0021036889B0F5
:10442000DB6898472F686E68B7420ED03C002300C7
:104430002068083398422CD0A3681834591C05F022
:1044400085FCA642F3D13E006F60002302AA0393CD
:104450001372AB6804AC0294B3421ED03000083033
:1044600030600299A14225D03160049B0193B36072
:10447000039B73606B6818336B6001220023524208
:104480002800EB602B612A62AB84FEF7C7FF09B0FE
:10449000F0BD1834A642CAD1D5E72800310002AADF
:1044A000FFF732FA0298A042E7D00499013105F0F3
:1044B0004DFCE2E7102205F033FCD9E770B50500AA
:1044C000806A002804D003689B689847041E02D1C4
:1044D0000024200070BD2800FFF79CFFF9E7C046CC
:1044E00070B50D00040086B02800614927F03AFB42
:1044F000002818D12521635C002B12D16368226843
:104500009A1AD21093009B1818011B1818021B1836
:1045100018041B185B009B18A26993421CD301234B
:10452000635406B070BD2800524927F01BFB0028D9
:1045300003D12000FFF74CFEF3E728004E4927F097
:1045400011FB00280CD12523E35C002BE9D12021AD
:104550002000FFF7C7FCE4E72000FFF713FBE0E7CC
:104560002800464927F0FEFA00280CD1042525260C
:10457000A35D002BD5D120212000013DFFF7B2FC27
:10458000002DF5D1CDE728003D4927F0EBFA0028B2
:104590001AD13C4D1D2228003B4926F0A9FB2B686F
:1045A0000C3B1B68EB18DE6F002E5ED0337F002BB8
:1045B00041D02723F15C280026F02AFB26F0A4FA3C
:1045C0002000FFF727FFACE72800304927F0CAFAA0
:1045D0000028A6D12B4D1E2228002D4926F088FB4D
:1045E0002B680C3B1B68EB18DE6F002E3DD0337F31
:1045F000002B2DD02723F15C280026F009FB02AD0B
:1046000026F082FA2A00234B009503CB03C21B88B5
:10461000694613800A236A4601930023200093749D
:10462000FEF70AFE0098A84200D17AE7029901310C
:1046300005F08CFB75E730000EF0B4FD3368164AC8
:104640009B690A219342B6D0300098470100B2E737
:1046500030000EF0A7FD33680F4A9B690A21934290
:10466000CAD0300098470100C6E71CF08DF8C0465C
:10467000E8E604103CE7041040E704105CE704108F
:1046800008E704108841002050FE041024E70410BD
:1046900070FE041090FE0410492F001010B502485F
:1046A00008F052FB10BDC04658440020F0B5DE466D
:1046B00057464E464546E0B583B00190002800D1EC
:1046C00000E1019BDB689946002B00D1E0E04B46FE
:1046D000DB689A46002B00D1C1E05346DB689B465D
:1046E000002B00D18AE05B46DE68002E6DD0F568B5
:1046F000002D52D0EB689846002B3ED04346DC6834
:10470000002C29D0E768002F16D0F868FFF7CEFFFD
:10471000BB68386900933B001833984203D0BA69EC
:10472000511C05F013FB2C21380005F00FFB009BFA
:10473000002B01D0009FE8E7230020691833A76809
:1047400098426ED0A369591C05F000FB2C21200073
:1047500005F0FCFA002F6AD1434618699C681833AB
:1047600098426ED043469B69591C05F0EFFA2C2104
:10477000404605F0EBFA002C69D12B00286918336C
:10478000AC68984255D0AB69591C05F0DFFA2C2172
:10479000280005F0DBFA002C51D1330030691833C2
:1047A000B46898420BD0B369591C05F0CFFA2C219C
:1047B000300005F0CBFA002C07D0260097E72C211B
:1047C000300005F0C3FA002CF7D15B4618699C68ED
:1047D000183398420CD05B469B69591C05F0B6FA19
:1047E0002C21584605F0B2FA002C07D0A3467AE7F0
:1047F0002C21584605F0AAFA002CF7D15346186927
:104800009C681833984224D053469B69591C05F084
:104810009DFA2C21504605F099FA002C1FD0A24693
:104820005BE72C21200005F091FA002F94D03C008A
:1048300068E72C21280005F089FA002CADD025006E
:1048400058E72C21404605F081FA002C95D0A0466F
:1048500054E72C21504605F079FA002CDFD14B4665
:1048600018699C68183398420CD04B469B69591CB8
:1048700005F06CFA2C21484605F068FA002C07D0A8
:10488000A14624E72C21484605F060FA002CF7D118
:10489000019D2B0028691833AC6898420CD0AB6995
:1048A000591C009305F052FA2C21280005F04EFA0D
:1048B000002C07D0019404E728002C2105F046FACB
:1048C000002CF7D103B0F0BCBB46B246A946A046C7
:1048D000F0BDC046F0B5DE4657464E464546E0B50B
:1048E00083B00190002800D100E1019BDB6899466C
:1048F000002B00D1E0E04B46DB689A46002B00D14C
:10490000C1E05346DB689B46002B00D18AE05B4642
:10491000DE68002E6DD0F568002D52D0EB68984609
:10492000002B3ED04346DC68002C29D0E768002FDE
:1049300016D0F868FFF7CEFFBB68786900933B009C
:104940001C33984203D0FA69511C05F0FFF92C2161
:10495000380005F0FBF9009B002B01D0009FE8E731
:10496000230060691C33A76898426ED0E369591C24
:1049700005F0ECF92C21200005F0E8F9002F6AD1B0
:10498000434658699C681C3398426ED04346DB69A5
:10499000591C05F0DBF92C21404605F0D7F9002C15
:1049A00069D12B0068691C33AC68984255D0EB691B
:1049B000591C05F0CBF92C21280005F0C7F9002C73
:1049C00051D1330070691C33B46898420BD0F3693D
:1049D000591C05F0BBF92C21300005F0B7F9002C6B
:1049E00007D0260097E72C21300005F0AFF9002C06
:1049F000F7D15B4658699C681C3398420CD05B46E3
:104A0000DB69591C05F0A2F92C21584605F09EF9E6
:104A1000002C07D0A3467AE72C21584605F096F9DA
:104A2000002CF7D1534658699C681C33984224D017
:104A30005346DB69591C05F089F92C21504605F0D5
:104A400085F9002C1FD0A2465BE72C21200005F041
:104A50007DF9002F94D03C0068E72C21280005F058
:104A600075F9002CADD0250058E72C21404605F003
:104A70006DF9002C95D0A04654E72C21504605F046
:104A800065F9002CDFD14B4658699C681C3398426D
:104A90000CD04B46DB69591C05F058F92C214846CF
:104AA00005F054F9002C07D0A14624E72C214846F4
:104AB00005F04CF9002CF7D1019D2B0068691C33DF
:104AC000AC6898420CD0EB69591C009305F03EF994
:104AD0002C21280005F03AF9002C07D0019404E7B6
:104AE00028002C2105F032F9002CF7D103B0F0BCDE
:104AF000BB46B246A946A046F0BDC046F0B5D64674
:104B00004F4646461500C0B507002C20894605F0E3
:104B10000DF92B6806001B784C4698460374030079
:104B20001C3343610023836103773B1D9A464B4549
:104B30003CD0237C984516D2FD684D4508D04846A8
:104B400009F072FF037C43454FD2C368002B43D06A
:104B5000012053462200310009F082FF7B693000BA
:104B600001337B611DE0984516D93B694B4537D031
:104B7000484609F043FF037C434559D9E368002BBD
:104B80002ED004000120E4E7230000293DD1904508
:104B900002D90024002B49D130002C2105F0D6F891
:104BA0002000E0BCBA46B146A846F0BD7B69002BA8
:104BB00003D03C69237C43450FD3BC68002C05D14E
:104BC00022E00121A368002BDED01C00227C90454E
:104BD000F7D30021E368F6E704000120A245B8D02E
:104BE000207C804580414042B3E7BC68002C05D161
:104BF0002FE00121A368002B11D01C00227C9045DE
:104C0000F7D30021E368F6E74C46FB68A3421ED0C9
:104C1000200009F009FF2300027C0400B7E723000D
:104C20000029B4D02B00A542F2D1B2E71C00D4E792
:104C3000BC68002C05D10EE00121A368002BA3D095
:104C40001C00227C9045F7D30021E368F6E723009F
:104C50009FE75446E6E75446D7E7C04670B50500DF
:104C60000068002801D002F077F92B003D33FF33B4
:104C70009C68002C1AD0E068FFF72CFE23006069C6
:104C80001C33A66898420BD0E369591C05F05EF806
:104C90002C21200005F05AF8002E07D03400EAE756
:104CA0002C21200005F052F8002EF7D12B00A86926
:104CB0002033984203D02B6A591C05F047F8EB6863
:104CC000002B03D0281D032201009847280070BD47
:104CD000F0B5CE46474680B583B01D000AAB1B78C1
:104CE00004009846234B0E00CF187B425F4191464B
:104CF00043463900009220482A0005F0E3FA49466D
:104D00003000266002F064F801001C4805F0DAFA71
:104D10002800022100F0D4FD4046022100F0D0FD21
:104D20002900174805F0CEFA4146164805F0CAFAA0
:104D3000C02320681B02026B01001A40802330311F
:104D40005B010B431A6008210023012202F016F9CF
:104D50000121206802F050F90B4805F059F942464C
:104D600039000A4805F0AEFA012003B0C0BCB946CC
:104D7000B046F0BD0080FCBF9CFE0410E0FE0410B5
:104D8000FCFE041020FF041044FF04106CFF04100C
:104D9000F0B5CE46474680B587B06E460A00330070
:104DA00007000C0003CA03C31D0023002A0003CA26
:104DB00003C331000822280004F0B2FFA3682900D1
:104DC00099460023A360E36808229846059B3000BB
:104DD000E36004F0A5FF2A003B1D03CB03C23B1D8B
:104DE00006CE06C34A46FB68FA603A690493059208
:104DF00042463A61002B03D003222900280098473D
:104E000007B0C0BCB946B046F0BDC046007D704793
:104E1000F0B506000B24082385B03D366C44FF3600
:104E200023704130B368FF3005000100002B04D12E
:104E3000E2E019009B68002B05D01A7C072AF8D8FD
:104E4000DB68002BF9D1A94200D1D5E00B7C082BFF
:104E500000D9D1E009278A69143108007B4B002171
:104E6000009726F0E7FCB36829002770002B04D1D7
:104E7000C9E019009B68002B05D01A7C082AF8D8D5
:104E8000DB68002BF9D1A94200D1BCE00B7C092BD7
:104E900000D9B8E003238A69143108000093002187
:104EA0006B4B26F0C7FC0A232370B3682900002B44
:104EB00004D1AFE019009B68002B05D01A7C092AA9
:104EC000F8D8DB68002BF9D18D4200D1A2E00B7C31
:104ED0000A2B00D99EE005235E4F8A691431080031
:104EE000009300213B0026F0A5FC0D232370B3683E
:104EF0002900002B04D194E019009B68002B05D0F9
:104F00001A7C0C2AF8D8DB68002BF9D1A94200D111
:104F100087E00B7C0D2B00D983E005238A691431CF
:104F20000800009300213B0026F084FC1B23237023
:104F3000B3682900002B04D17AE019009B68002B8C
:104F400005D01A7C1A2AF8D8DB68002BF9D18D42DB
:104F500000D16DE00B7C1B2B6AD803238A691431C6
:104F60000800009300213C4B26F064FC20232370B2
:104F7000B3682900002B04D161E019009B68002B65
:104F800005D01A7C1F2AF8D8DB68002BF9D1A9427A
:104F900055D00B7C202B52D805238A691431080088
:104FA000009300212D4B26F045FC7F232370B3682E
:104FB0002900002B04D10EE019009B68002B05D0BE
:104FC0001A7C7E2AF8D8DB68002BF9D1A94202D0DE
:104FD0000B7C7F2B05D9300003AA0394FFF78EFDCD
:104FE000010006238A691431009308001C4B00213C
:104FF00026F020FC05B0F0BD300003AA0394FFF7B3
:105000007DFD010026E7300003AA0394FFF776FD3B
:1050100001003FE7300003AA0394FFF76FFD010092
:1050200059E7300003AA0394FFF768FD010074E715
:10503000300003AA0394FFF761FD01008DE7300003
:1050400003AA0394FFF75AFD0100A5E73CE704100B
:105050005CE70410E8E6041008E7041040E70410D9
:10506000A4FF04100200203210B500238261202228
:105070000360C3600375C36183541932FF32036355
:10508000436383500832835402004132FF3253603D
:1050900013619260D26080220400002152003830F7
:1050A00004F038FE2000FFF7B3FE200010BDC0461C
:1050B000F0B5DE4657464E464546E0B58C6883B0AF
:1050C000824693460091002C42D013685768994657
:1050D0002369666998463D00B74200D93500002D26
:1050E0000DD02A004146484649F036FA002806D03D
:1050F00007DBE3680022002B07D01C00E8E7B81BA1
:10510000F7D5A3680122002BF7D10194002A20D102
:10511000002D14D02A004946404649F01DFA0028C7
:105120000DD00EDB534652461C60002353605046A0
:1051300003B0F0BCBB46B246A946A046F0BDF01B8A
:10514000F0D50023524613605346019A5A60EEE7A9
:105150000C1D009BDB68A34214D0200009F064FC06
:105160000369466998465B461B6899465B465F68DB
:105170003D00B74202D801940400C9E7019435000C
:105180000400C5E75246002354601360CFE7C046D1
:10519000F0B55746DE464E464546E0B5AFB08246CE
:1051A00001F02AFB002900D188E0FA2200239200B6
:1051B00003F02CFE019053460AAA94464F2019682A
:1051C00001258B6910226044DB0670D414008B69C2
:1051D0001C401A42FAD10B6843558B691A4203D11D
:1051E0000135412DF2D140250199B94805F06AF801
:1051F0002900B84805F066F82900B74805F062F8BC
:105200001EAB9946A846C8441E004346A0461C0053
:10521000B24F31783800013605F054F8B442F8D175
:105220002300444698460A2004F0A6FEAC4805F048
:1052300049F84E46474630780300203B5E2B00D9A4
:105240002E20013604F098FEB742F4D10A2004F073
:1052500093FEA44804F0DCFEA34B4E469B46B846A2
:10526000A24F3278202A48D8072A56D91300083B83
:10527000DBB2182B51D89E499B00CB589F4621008A
:105280009C4805F01FF801340136AC42E9D14A468A
:1052900041461378013BDBB2FD2B49D901329142E3
:1052A000F7D1954804F0B4FE944804F0B1FE2FB055
:1052B000F0BCBB46B246A946A046F0BDFA21890023
:1052C00003F066FD019076E721008D4804F0FAFFB7
:1052D000D9E721008B4804F0F5FFD4E721008A4884
:1052E00004F0F0FFCFE72100884804F0EBFFCAE7A5
:1052F0002100874804F0E6FFC5E77F2A04D121009A
:10530000380004F0DFFFBEE71300203B21005E2BD6
:105310000AD8584604F0D6FFB5E7202AF4D0210079
:105320007C4804F0CFFFAEE77B4804F0CBFFAAE750
:105330005346019A79485A63884604F069FE0CABDB
:105340009B4600235A461371936053614346029370
:1053500053460DA94C46D160116112AF089303E08A
:10536000029B01349C4266D02278531EDBB2FD2B97
:10537000F6D814AB3B60002308997B603B720B00AE
:105380003D33FF3341319B68FF310D00002B04D1C9
:105390000EE019009B68002B05D0187C9042F8D2D3
:1053A000DB68002BF9D18D4202D00B7C93422BD9C4
:1053B0001300203B5E2BD3D818AD1AAB2800012177
:1053C000189326F0ADF8189B1AAA3868934200D1BA
:1053D0004FE114AA904200D1E9E13B606B68BA68E2
:1053E00013931A9B1493002800D1E5E12860AA606A
:1053F00000236B60037028681AAB984208D0A96834
:10540000013104F0A3FC03E03800143126F0ACF8BD
:105410007B689946002B00D086E0129B9A4614AB1D
:105420009A459DD0BB685046591C04F08FFC029BE6
:1054300001349C4298D1089B9A465B465746DC68EB
:105440000DAB18379C423ED0042353449846B946CE
:105450005546334E17E03900484626F085F8019B43
:105460002B63EB68002B03D0390040462B6998472B
:105470002169300004F026FF200009F0BFFA0DABCF
:10548000040098421FD027006269EB6910379A42E6
:10549000E1D123699A46002A05D01800A96949F08C
:1054A0005BF80028D7D1019B2A6B9A1A962AD2D88A
:1054B00051461C4804F006FF200009F09FFA0DAB8E
:1054C00004009842DFD15B469868FFF7EFF8EBE6FF
:1054D000E8FF04101C0005102C00051050000510FA
:1054E000580005106800051020010510F000051097
:1054F00024020510E0000510FC010510A8010510AC
:10550000D0000510B4000510A00005109000051093
:105510007C0005100001051040010510D0010510A8
:1055200090010510600105105B469D68002D35D087
:10553000129B0DAEB0469A464E46A1466C69A642F5
:105540002AD3221E21D05146286949F005F80028A7
:105550001BD01CDBA846AD68002DEFD14C46B146F0
:1055600046460DAB9E421AD075694A46A94500D9F8
:105570008FE05046316948F0EFFF002809D000283D
:105580000DDB28230122F25449E7A01BE2D5ED6888
:10559000E2E74B46581BF2E73200D4E70DAE2C2071
:1055A00004F0C4FB10239C468444634607931823ED
:1055B0009C4684446346059303613B680500994615
:1055C0007B6898464B46002B4DD0434618930F2BD3
:1055D00064D8012B00D027E14B461B780376059B4E
:1055E000424641466A6100225A542823EA540DABD0
:1055F0009E4263D02B699A466B6999464A46336945
:105600000392069373690493994500D90393039B0E
:10561000002B00D186E01A005046069948F09CFF06
:10562000002800D0EFE04B46049A9B1A7ED45146E6
:10563000039A069848F090FF002802D14A46049B3E
:10564000981A002800DABBE0059B9A4504D0AB69A4
:105650005046591C04F07AFB2C21280004F076FBFC
:105660003B689A468DE74346002B00D0D9E0059B66
:10567000B6E76A68002A07D0012A00D1C9E01AA952
:1056800004F04EFB6A68386800237A608354286807
:10569000AEE6002D00D17CE72A006AE700220798D9
:1056A00018A925F01FFF189B2861AB6142464946A7
:1056B00004F036FB189B98462B6991E75B465B69C3
:1056C000002B15D0109B5E6998466B693200994695
:1056D0009E4200D91A00002A06D04346296918695B
:1056E00048F03AFF002801D14B46F01A00283CDB75
:1056F0005946079A0AA8FFF7DBFC0B9B0A9E9846BF
:10570000002B00D18AE00120002E2ED042460DABA6
:10571000290009F0A5F95B465A465B692E00013362
:1057200053619DE74B46049A9B1A87D50F9BB34262
:1057300066D0300009F078F9436980464A46039301
:10574000994500D91A00002A06D0434651461869E7
:1057500048F002FF002802D14A46039B981A00280D
:10576000C6DA4346DB68002B4AD10DAB01209845D1
:10577000CCD02B699A466B69994643461B694A46C9
:10578000069343465B6903920493994500D90393BA
:10579000039B002B06D01A005046069948F0DCFE09
:1057A000002802D14B46049A981AC00FAEE73B601E
:1057B0006B6813931A9B14931AAB18002B6017E6AF
:1057C000109BB34223D0300009F018F9436980469A
:1057D0004A460993994500D91A00002A06D0434643
:1057E0005046196948F0B8FE002802D14B46099A84
:1057F000981A002800DB7BE7F368002B07D04646A9
:10580000B046012082E7002800DB10E78EE7B046B3
:10581000BEE72B7A03706A68386835E72B699A46C9
:1058200012E705481AF0C0FF4246059B002A00D146
:10583000D6E618003AE7C04658E90410036810B5E8
:105840000400002B15D09B69DB0625D500F0D4FFA2
:1058500000290FD0FA220023920003F0D7FA636BDD
:10586000144AC01A90420ED8002B0CD0237D002B76
:1058700019D010BDFA21890003F08AFA636B0D4A32
:10588000C01A9042F0D9237D002BF2D000230A48A1
:10589000237504F0BDFBECE7FFF77AFC00F0ACFFEA
:1058A0000029E7D0D6E701332375044804F0B0FBA4
:1058B000DFE7C04687130000C4FF0410ACFF0410EC
:1058C000094A830094464022634410B51C68C00016
:1058D0006240C02414408022520113431C60034BD9
:1058E0009C466044416010BD04C00140004001403E
:1058F0000123D0228340120693629361094A8300F8
:105900009446402263441968C0004A40C0211140B7
:105910008022520113431960034B9C4605236044C7
:105920004360704704C0014000400140024B1868CA
:105930008007C00F7047C04600C0064070B5EFF347
:10594000108C72B60D4D2B68002BFCD0BFF35F8F0F
:105950000724CB08C618C05C01230C40A3401C00E0
:105960000440034207D103433370BFF35F8F2C60C1
:105970008CF3108870BD100001F04EFE2C0100D099
:10598000F8B54746CE46884680B5EFF3108C72B620
:10599000214D2C68002CFCD0BFF35F8F9A422CD88D
:1059A000D4080727055D061901241740BC402C4286
:1059B0001FD007210127894609E0D408055D061993
:1059C0004C4639001440A1400C00294211D001324C
:1059D0009342F2D201204042BFF35F8F00220E4B70
:1059E0001A608CF3108800280FDBC0BCB946B046A3
:1059F000F8BD2C4310003470EEE7BFF35F8F002337
:105A00002B608CF31088012040424346002BECD0E1
:105A1000089801F001FEC0462C0100D00021044B83
:105A2000044ABFF35F8F02C39342FAD17047C04666
:105A3000000100D0800100D0044A1078431CDBB282
:105A4000172B00D9102313707047C046181F002071
:105A500000B5054B83B00100009318221F230348B3
:105A6000FFF78EFF03B000BD880205102C4A00200E
:105A700001238340002904D0034A1360034A1360C2
:105A80007047034A1360FBE780E200E000E100E0BA
:105A900080E100E001238340014A13607047C04663
:105AA00000E200E0084B10309B688000C358002BD8
:105AB00007D0064A00209B1A2F229A424041C0B2CA
:105AC00070470020FCE7C04600ED00E01C1F0020EE
:105AD000024B10309B688000C058704700ED00E01A
